:020000040000FA
:10000000B201B628A70086110512051283168611C3
:1000100005120512F030850583122708B2182D2825
:100020003A30A100FC3095203330A6004220103039
:10003000A100683095204220643094202230A60030
:10004000422028302C200C302C2001302C2006306F
:100050002C20B21427082D283214A600321C3B286D
:100060000512033C031C402840200530A100DC3071
:100070009520031408003214FE3C0319B12805161C
:10008000A60E321C32108615F030850526080F3971
:1000900085048611A60E321842282C3094200314B1
:1000A000080064006120031851286C200830A30068
:1000B0006D206120A20C5C28A30B58286D2022081B
:1000C000080036088400340884178004841300056F
:1000D00033193406FF3E08003317330D0639A000EC
:1000E0007B20A100A00A7B20331F95283313A0009A
:1000F0000230AC20952800308A00200882070134A5
:1001000075340334153400343C340C34D934A30131
:10011000A200FF30A207031CA307031CB128033071
:10012000A100DF3095208928A101E83EA000A109A7
:10013000FC30031C9E28A00703189B28A00764001E
:10014000A10F9B282018A428A01CA8280000A828DC
:1001500008000310A10CA00CFF3E0318A9282008DA
:10016000B12883130313831264000800FE300220B9
:100170000130022020300220503002205230022074
:100180004F300220593002204530022043300220F7
:10019000543002204F30022020300220463002200E
:1001A000493002204E300220413002204C300220E3
:1001B00020300220FE300220C030022049300220D0
:1001C0004E300220543002204530022052300220AE
:1001D00046300220413002204330022045300220C8
:1001E00053300220203002202D3002202030022007
:1001F0005530022054300220453002200F30A30039
:10020000A0308820FE300220013002200630B600E7
:100210000230B4000530B3005120B8003808022085
:1002200064003808413C031D6329FE300220013080
:100230000220061583160611FE30831202200130BB
:1002400002202030022020300220203002204530C1
:1002500002204E30022043300220453002204E3032
:1002600002204430022049300220443002204F3026
:100270000220203002202030022020300220FE30D8
:100280000220C03002202030022020300220203006
:100290000220203002204C30022045300220443021
:1002A000022020300220413002205A3002205530F6
:1002B00002204C300220203002202030022020304A
:1002C00002202030022064003808423C031DB2297D
:1002D000FE30022001300220061183160611FE3086
:1002E0008312022001300220203002202030022020
:1002F00020300220203002204130022050300220E5
:100300004130022047300220413002204430022098
:100310004F300220203002202030022020300220E6
:1003200020300220FE300220C03002202030022087
:1003300020300220203002204C30022045300220A4
:100340004430022020300220413002205A30022066
:10035000553002204C300220203002202030022074
:100360002030022064003808433C031D052AFE307B
:10037000022001300220061683160612FE30831278
:1003800002200130022020300220203002202030C4
:100390000220453002204E300220433002204530FA
:1003A00002204E30022044300220493002204430E6
:1003B00002204F3002202030022020300220203046
:1003C0000220FE300220C0300220203002202030E7
:1003D000022020300220203002204C300220453004
:1003E00002204430022020300220523002204F30C0
:1003F00002204A3002204F300220203002202030DC
:100400000220203002202030022064003808443CC2
:10041000031D542AFE3002200130022006128316EA
:100420000612FE308312022001300220203002200A
:1004300020300220203002202030022041300220D3
:10044000503002204130022047300220413002204B
:10045000443002204F300220203002202030022081
:100460002030022020300220FE300220C030022046
:100470002030022020300220203002204C30022088
:100480004530022044300220203002205230022029
:100490004F3002204A3002204F300220203002200C
:1004A000203002202030022064003808453C031D23
:1004B000CA2AFE300220013002200130BB00640055
:1004C00015303B0203187E2A061583160611831287
:1004D0000130A3002C3088200611831606118312E8
:1004E00006168316061283120130A3002C308820D2
:1004F0000612831606128312BB0F5F2A0615831697
:1005000006118312061683160612FE30831202208D
:100510000130022020300220203002202030022032
:10052000453002204E300220433002204530022068
:100530004E30022044300220493002204430022054
:100540004F300220203002202030022020300220B4
:10055000FE300220C03002204C3002204530022004
:100560004430022020300220523002204F3002203E
:100570004A3002204F300220203002205930022021
:1005800020300220413002205A3002205530022013
:100590004C30022064003808463C031D1F2BFE30FF
:1005A0000220013002200611831606118312061262
:1005B00083160612FE308312022001300220203002
:1005C0000220203002202030022020300220413042
:1005D00002205030022041300220473002204130BA
:1005E0000220443002204F300220203002202030F0
:1005F00002202030022020300220FE300220C030B5
:1006000002204C30022045300220443002202030AD
:100610000220523002204F3002204A3002204F3058
:1006200002202030022059300220203002204130A8
:1006300002205A300220553002204C300220640043
:100640003908203C031D2A2BFE30022001300220F5
:100650003908022064003808483C031D472BFE304F
:100660000220013002200615831606118312061699
:100670008316061283120130A3002C308820061145
:100680008316061183120612831606128312062998
:040690006300482B90
:02400E00653F0C
:00000001FF
